:100000000C942A000C9447000C9447000C94470071
:100010000C9447000C9447000C9425060C94470060
:100020000C9447000C9447000C9447000C94470034
:100030000C9447000C9447000C9447000C94470024
:100040000C9447000C9447000C9447000C94470014
:100050000C94470011241FBECFE5D8E0DEBFCDBF12
:1000600010E0A0E6B0E0E8E8F6E202C005900D92EC
:10007000AC36B107D9F720E0ACE6B0E001C01D9284
:10008000A137B207E1F70E9451020C9442130C947D
:100090000000CF93DF9300D0CDB7DEB782E0898335
:1000A00081E08A83CE0101960E945A0685E690E09F
:1000B0000E94B20641E065E081E00E940303000077
:1000C0000F900F90DF91CF910895CF93DF93CDB72D
:1000D000DEB780916E008F5F80936E0080916E001E
:1000E000813031F40E94F40680E00E94C5060FC002
:1000F00080916E00823059F40E94E80690936D0062
:1001000080936C000E94F40681E00E94C506000006
:10011000DF91CF910895CF93DF93CDB7DEB7CC5465
:10012000D1090FB6F894DEBF0FBECDBF41E065E048
:1001300081E00E94F40380E090E0A0E2B1E48983D2
:100140009A83AB83BC832BEA3AEA4AE250E46981A2
:100150007A818B819C810E9495126DA37EA38FA3CF
:1001600098A78DA19EA1AFA1B8A58D839E83AF83D3
:10017000B88789819A81AB81BC8189A79AA7ABA7EF
:10018000BCA729A53AA54BA55CA569A57AA58BA511
:100190009CA50E94CC106DA77EA78FA798AB8DA5BC
:1001A0009EA5AFA5B8A989879A87AB87BC8720E0B1
:1001B00030E040E85FE36D817E818F8198850E9409
:1001C000381188231CF481E08D87EBC020E03FEFDD
:1001D0004FE757E469857A858B859C850E9490124C
:1001E00018160CF0A4C020E030E04AE754E469811E
:1001F0007A818B819C810E943D1169AB7AAB8BAB7C
:100200009CAB89A99AA9ABA9BCA98E879F87A88B0B
:10021000B98B20E030E04AEF54E46E857F85888911
:1002200099890E9495126DAB7EAB8FAB98AF8DA96B
:100230009EA9AFA9B8AD8A8B9B8BAC8BBD8B20E000
:1002400030E040E85FE36A897B898C899D890E9460
:10025000381188232CF481E090E09F8B8E8B5BC05B
:1002600020E03FEF4FE757E46A897B898C899D89BD
:100270000E94901218160CF03CC020E030E040E2E2
:1002800051E46E857F85888999890E94951269AFAE
:100290007AAF8BAF9CAF89AD9AADABADBCAD89A346
:1002A0009AA3ABA3BCA369A17AA18BA19CA10E9434
:1002B000AF1121966CAF7DAF8EAF9FAF2197ADADE3
:1002C000BEADBF8BAE8B10C088EC90E0998F888F4D
:1002D000888D998D0197F1F7998F888F00008E890D
:1002E0009F8901979F8B8E8B8E899F89892B61F7C0
:1002F0001DC06A897B898C899D890E94AF112596D2
:100300006CAF7DAF8EAF9FAF259723968EAD9FAD1F
:1003100023979F8B8E8B8E899F899B8F8A8F8A8D47
:100320009B8D0197F1F79B8F8A8F000041C020E0E1
:1003300030E04FE753E46D817E818F8198850E9484
:1003400090121816F4F469857A858B859C850E9435
:10035000AF1129966CAF7DAF8EAF9FAF29972796CF
:10036000AEADBFAD2797BD8FAC8F8C8D9D8D9F8F10
:100370008E8F8E8D9F8D0197F1F79F8F8E8F00004E
:1003800017C06D817E818F8198850E94AF112D9657
:100390006CAF7DAF8EAF9FAF2D972A96BFAD2A97DA
:1003A000BD878D8588A388A18A95F1F788A3000071
:1003B00040E065E081E00E94F4030000C45BDF4F91
:1003C0000FB6F894DEBF0FBECDBFDF91CF91089579
:1003D000CF93DF93CDB7DEB76C970FB6F894DEBF3F
:1003E0000FBECDBF0E948B00000080916E00823056
:1003F000E1F710926E0080916C0090916D009C016D
:1004000040E050E02D873E874F87588B6D857E8575
:100410008F8598890E94DE1169837A838B839C8300
:1004200020E034E244E759E469817A818B819C8140
:100430000E943D11698B7A8B8B8B9C8B89899A8961
:10044000AB89BC898D839E83AF83B88720E030ED74
:1004500044E856E46D817E818F8198850E949512D3
:100460006D8B7E8B8F8B988F2D893E894F89588D10
:1004700029873A874B875C8769857A858B859C8538
:100480000E94AF11698F7A8F8B8F9C8F898D9A8D87
:100490006C960FB6F894DEBF0FBECDBFDF91CF9143
:1004A0000895CF93DF93CDB7DEB7A2970FB6F89438
:1004B000DEBF0FBECDBF0E9449000E94120780E63A
:1004C00090E00E941F108FE590E0DC012C918FE5F9
:1004D00090E02068FC0120836BE081E00E944C10DA
:1004E0000E94E8010E949C1080E090E0AAEFB3E433
:1004F00089839A83AB83BC8320E030E04AEF54E4E5
:1005000069817A818B819C810E9495126B8B7C8B97
:100510008D8B9E8B8B899C89AD89BE898D839E83B3
:10052000AF83B88720E030E040E85FE36D817E81F3
:100530008F8198850E94381188232CF481E090E007
:100540009A87898754C020E03FEF4FE757E46D81D9
:100550007E818F8198850E9490121816D4F520E034
:1005600030E040E251E469817A818B819C810E9474
:1005700095126F8B788F898F9A8F8F89988DA98D1F
:10058000BA8D8F87988BA98BBA8B6F85788989896B
:100590009A890E94AF116B8F7C8F8D8F9E8FAB8D50
:1005A000BC8DBA87A98710C088EC90E09C878B87A8
:1005B0008B859C850197F1F79C878B870000898547
:1005C0009A8501979A87898789859A85892B61F70A
:1005D00019C06D817E818F8198850E94AF116F8FC8
:1005E00078A389A39AA3EF8DF8A1FA87E987898573
:1005F0009A859E878D878D859E850197F1F79E87C9
:100600008D87000069CFCF93DF9300D00F92CDB7D5
:10061000DEB789836A834B838A81883008F0DCC027
:100620008981843008F0D9C08981882F90E0833097
:10063000910509F4A1C0843091050CF0CEC0823040
:10064000910509F469C0833091050CF0C6C000978C
:1006500019F0019789F1C1C08B818130B1F48AE32F
:1006600090E0FC018081482F8A81282F30E081E0D2
:1006700090E002C0880F991F2A95E2F7242F282BBB
:100680008AE390E0FC012083A8C08AE390E0FC01AB
:100690008081482F8A81282F30E081E090E002C0DD
:1006A000880F991F2A95E2F78095242F28238AE343
:1006B00090E0FC01208391C08B818130B1F487E30D
:1006C00090E0FC018081482F8A81282F30E081E072
:1006D00090E002C0880F991F2A95E2F7242F282B5B
:1006E00087E390E0FC01208378C087E390E0FC0181
:1006F0008081482F8A81282F30E081E090E002C07D
:10070000880F991F2A95E2F78095242F282387E3E5
:1007100090E0FC01208361C08B818130B1F484E3DF
:1007200090E0FC018081482F8A81282F30E081E011
:1007300090E002C0880F991F2A95E2F7242F282BFA
:1007400084E390E0FC01208348C084E390E0FC0156
:100750008081482F8A81282F30E081E090E002C01C
:10076000880F991F2A95E2F78095242F282384E388
:1007700090E0FC01208331C08B818130B1F481E3B2
:1007800090E0FC018081482F8A81282F30E081E0B1
:1007900090E002C0880F991F2A95E2F7242F282B9A
:1007A00081E390E0FC01208318C081E390E0FC012C
:1007B0008081482F8A81282F30E081E090E002C0BC
:1007C000880F991F2A95E2F78095242F282381E32B
:1007D00090E0FC01208301C0000000000F900F900A
:1007E0000F90DF91CF910895CF93DF9300D00F92B8
:1007F000CDB7DEB789836A834B838A81883008F05E
:10080000DCC08981843008F0D9C08981882F90E0CC
:100810008330910509F4A1C0843091050CF0CEC05D
:100820008230910509F469C0833091050CF0C6C08F
:10083000009719F0019789F1C1C08B818130B1F423
:100840008BE390E0FC018081482F8A81282F30E0E3
:1008500081E090E002C0880F991F2A95E2F7242FCB
:10086000282B8BE390E0FC012083A8C08BE390E071
:10087000FC018081482F8A81282F30E081E090E0C0
:1008800002C0880F991F2A95E2F78095242F28230C
:100890008BE390E0FC01208391C08B818130B1F427
:1008A00088E390E0FC018081482F8A81282F30E086
:1008B00081E090E002C0880F991F2A95E2F7242F6B
:1008C000282B88E390E0FC01208378C088E390E047
:1008D000FC018081482F8A81282F30E081E090E060
:1008E00002C0880F991F2A95E2F78095242F2823AC
:1008F00088E390E0FC01208361C08B818130B1F4FA
:1009000085E390E0FC018081482F8A81282F30E028
:1009100081E090E002C0880F991F2A95E2F7242F0A
:10092000282B85E390E0FC01208348C085E390E01C
:10093000FC018081482F8A81282F30E081E090E0FF
:1009400002C0880F991F2A95E2F78095242F28234B
:1009500085E390E0FC01208331C08B818130B1F4CC
:1009600082E390E0FC018081482F8A81282F30E0CB
:1009700081E090E002C0880F991F2A95E2F7242FAA
:10098000282B82E390E0FC01208318C082E390E0F2
:10099000FC018081482F8A81282F30E081E090E09F
:1009A00002C0880F991F2A95E2F78095242F2823EB
:1009B00082E390E0FC01208301C0000000000F9062
:1009C0000F900F90DF91CF910895CF93DF9300D0D8
:1009D0000F92CDB7DEB78A836B8319828B81883003
:1009E00008F077C08A81843008F074C08A81882F2B
:1009F00090E08330910509F455C0843091050CF0E6
:100A000069C082309105B9F1833091050CF062C064
:100A1000009719F00197C1F05DC089E390E0FC01F7
:100A20008081882F90E02B81222F30E002C09595A5
:100A300087952A95E2F781709927892B19F081E033
:100A4000898348C0198246C086E390E0FC0180811A
:100A5000882F90E02B81222F30E002C0959587955A
:100A60002A95E2F781709927892B19F081E0898313
:100A700031C019822FC083E390E0FC018081882F70
:100A800090E02B81222F30E002C0959587952A9522
:100A9000E2F781709927892B19F081E089831AC0C8
:100AA000198218C080E390E0FC018081882F90E0DB
:100AB0002B81222F30E002C0959587952A95E2F789
:100AC00081709927892B19F081E0898303C01982ED
:100AD00001C0000089810F900F900F90DF91CF919E
:100AE0000895CF93DF9300D0CDB7DEB789836A83B3
:100AF0008981843060F58981882F90E08330910569
:100B000001F1843091051CF582309105A1F083300C
:100B10009105ECF4009719F0019739F018C08AE3B9
:100B200090E02A81FC01208312C087E390E02A81B3
:100B3000FC0120830CC084E390E02A81FC01208327
:100B400006C081E390E02A81FC01208300000000C0
:100B50000F900F90DF91CF910895CF93DF9300D046
:100B6000CDB7DEB789836A838981843060F5898156
:100B7000882F90E08330910501F1843091051CF5B8
:100B800082309105A1F083309105ECF4009719F0C3
:100B9000019739F018C08BE390E02A81FC01208393
:100BA00012C088E390E02A81FC0120830CC085E319
:100BB00090E02A81FC01208306C082E390E02A8134
:100BC000FC012083000000000F900F90DF91CF9177
:100BD0000895CF93DF9300D0CDB7DEB78A83198213
:100BE0008A81843060F58A81882F90E08330910576
:100BF00001F1843091051CF582309105A1F083301C
:100C00009105ECF4009719F0019739F018C089E3C9
:100C100090E0FC018081898312C086E390E0FC01B2
:100C2000808189830CC083E390E0FC01808189830B
:100C300006C080E390E0FC01808189830000898107
:100C40000F900F90DF91CF9108951F920F920FB6E2
:100C50000F9211242F933F934F935F936F937F9342
:100C60008F939F93AF93BF93EF93FF93CF93DF93B4
:100C7000CDB7DEB780916F0090917000892B31F075
:100C800080916F0090917000FC0109950000DF9148
:100C9000CF91FF91EF91BF91AF919F918F917F91F4
:100CA0006F915F914F913F912F910F900FBE0F90D9
:100CB0001F901895CF93DF9300D0CDB7DEB79A83FE
:100CC000898381E390E0FC01408181E390E04F7BE8
:100CD000FC0140838FE490E04CE0FC0140838EE413
:100CE00090E0FC018081482F4F7B89819A81FC0133
:100CF0008181882F90E0382F36953695282F2295C0
:100D0000220F220F207C822F242F282B8EE490E0AC
:100D1000FC0120838EE490E0FC018081282F287F55
:100D200089819A81FC018081282B8EE490E0FC016E
:100D3000208386E490E0FC01118210828CE490E034
:100D4000FC011182108289E590E0FC01208189E597
:100D500090E02062FC01208300000F900F90DF9153
:100D6000CF910895CF93DF9300D0CDB7DEB79A83AC
:100D7000898389819A819093700080936F0000002D
:100D80000F900F90DF91CF910895CF93DF930F9243
:100D9000CDB7DEB789838EE490E0FC018081482FD7
:100DA0004F7B8981882F90E0382F36953695282FF4
:100DB0002295220F220F207C822F242F282B8EE4B5
:100DC00090E0FC01208300000F90DF91CF91089507
:100DD000CF93DF93CDB7DEB786E490E0FC0180814E
:100DE0009181DF91CF910895CF93DF93CDB7DEB797
:100DF0008CE490E0FC01118210820000DF91CF9121
:100E00000895CF93DF93CDB7DEB789E590E0FC017D
:100E1000208189E590E02F7DFC0120830000DF9197
:100E2000CF910895CF93DF93CDB7DEB7A2970FB6DA
:100E3000F894DEBF0FBECDBF41E060E081E00E94CC
:100E4000030341E061E081E00E94030380E090E061
:100E5000A0EAB1E489839A83AB83BC8320E030E0CD
:100E60004AEF54E469817A818B819C810E949512BA
:100E70006B8B7C8B8D8B9E8B8B899C89AD89BE897E
:100E80008D839E83AF83B88720E030E040E85FE346
:100E90006D817E818F8198850E94381188232CF482
:100EA00081E090E09A87898754C020E03FEF4FE7C8
:100EB00057E46D817E818F8198850E94901218166B
:100EC000D4F520E030E040E251E469817A818B8101
:100ED0009C810E9495126F8B788F898F9A8F8F8952
:100EE000988DA98DBA8D8F87988BA98BBA8B6F85BA
:100EF000788989899A890E94AF116B8F7C8F8D8F39
:100F00009E8FAB8DBC8DBA87A98710C088EC90E00E
:100F10009C878B878B859C850197F1F79C878B87B6
:100F2000000089859A8501979A87898789859A859E
:100F3000892B61F719C06D817E818F8198850E9410
:100F4000AF116F8F78A389A39AA38F8D98A19A87E9
:100F5000898789859A859E878D878D859E8501974E
:100F6000F1F79E878D8700006FEF80E00E9471058A
:100F700088E30E94CB078CE00E94CB0781E00E94AF
:100F8000CB070000A2960FB6F894DEBF0FBECDBF10
:100F9000DF91CF9108950F931F93CF93DF93CDB738
:100FA000DEB7C55ED1090FB6F894DEBF0FBECDBF68
:100FB0009E012F593F4FD9018C9340E060E081E0C2
:100FC0000E94F4039E012F5B3F4F80E090E0A0E879
:100FD000BFE3F90180839183A283B3838E010B5B0E
:100FE0001F4FCE018F5B9F4F2BEA3AEA4AE250E453
:100FF000DC016D917D918D919C910E949512E296FC
:101000006CAF7DAF8EAF9FAFE297E2962CAD3DAD5A
:101010004EAD5FADE297D8012D933D934D935C9318
:1010200013978E01075B1F4FCE018F5B9F4FDC0133
:101030002D913D914D915C91E6962CAF3DAF4EAF19
:101040005FAFE697E6962CAD3DAD4EAD5FADE69752
:10105000E6966CAD7DAD8EAD9FADE6970E94CC104F
:10106000EA966CAF7DAF8EAF9FAFEA97EA962CAD54
:101070003DAD4EAD5FADEA97D8012D933D934D93B5
:101080005C931397CE018B5B9F4F20E030E040E8EC
:101090005FE3FC0160817181828193810E9438113C
:1010A00088233CF4CE01835B9F4F21E0DC012C932D
:1010B00093C1CE01875B9F4F20E03FEF4FE757E49E
:1010C000FC0160817181828193810E9490121816C7
:1010D0000CF01CC1CE018F5B9F4F20E030E04AE74F
:1010E00054E4DC016D917D918D919C910E943D11A4
:1010F000EE966CAF7DAF8EAF9FAFEE97EE968CAD58
:101100009DADAEADBFADEE979E01225B3F4FF901A5
:1011100080839183A283B3838E010E5A1F4FCE0129
:10112000825B9F4F20E030E04AEF54E4DC016D9198
:101130007D918D919C910E949512C258DF4F6883DA
:1011400079838A839B83CE57D040C258DF4F288152
:1011500039814A815B81CE57D040D8012D933D9390
:101160004D935C931397CE018E5A9F4F20E030E051
:1011700040E85FE3FC0160817181828193810E947C
:10118000381188234CF4CE018A5A9F4F21E030E079
:10119000DC012D933C939EC0CE018E5A9F4F20E0E0
:1011A0003FEF4FE757E4FC016081718182819381B9
:1011B0000E94901218160CF06FC0CE01825B9F4FF8
:1011C00020E030E040E251E4DC016D917D918D91B1
:1011D0009C910E949512CE57DF4F688379838A8352
:1011E0009B83C258D040CE57DF4F288139814A8136
:1011F0005B81C258D040AE962CAF3DAF4EAF5FAFD3
:10120000AE978E010A5A1F4FAE966CAD7DAD8EAD76
:101210009FADAE970E94AF11CA57DF4F68837983A5
:101220008A839B83C658D040CA57DF4FE881F98133
:10123000C658D040D801ED93FC9325C0CE01885A02
:101240009F4F28EC30E0DC012D933C93CE01885A6F
:101250009F4FFC01808191810197F1F79E01285AEF
:101260003F4FD9018D939C930000CE018A5A9F4F26
:101270009E012A5A3F4FF9012081318121503109C5
:10128000DC012D933C93CE018A5A9F4FFC01808153
:101290009181892B99F639C08E010A5A1F4FCE01D0
:1012A0008E5A9F4FDC016D917D918D919C910E9492
:1012B000AF11C657DF4F688379838A839B83CA58EF
:1012C000D040C657DF4F28813981CA58D040F80135
:1012D00031832083CE01865A9F4F9E012A5A3F4F69
:1012E000D9012D913C91FC0131832083CE01865A96
:1012F0009F4FDC018D919C910197F1F79E01265A39
:101300003F4FF9019183808300007EC0CE018B5B4B
:101310009F4F20E030E04FE753E4DC016D917D9179
:101320008D919C910E9490121816D4F58E01045A4A
:101330001F4FCE01875B9F4FFC01608171818281CD
:1013400093810E94AF11C257DF4F688379838A83EC
:101350009B83CE58D040C257DF4FE881F981CE58E9
:10136000D040D801ED93FC93CE01825A9F4F9E014D
:10137000245A3F4FD9012D913C91FC0131832083A8
:10138000CE01825A9F4FDC018D919C910197F1F71C
:101390009E01225A3F4FF90191838083000034C09F
:1013A0008E01035B1F4FCE018B5B9F4FDC016D9164
:1013B0007D918D919C910E94AF11CE56DF4F688335
:1013C00079838A839B83C259D040CE56DF4F2881D0
:1013D000C259D040F8012083CE01805A9F4F9E0110
:1013E000235B3F4FD9012C91FC012083CE01805A11
:1013F0009F4FDC018C91282F2A95F1F7CE01805A5E
:101400009F4FFC012083000041E061E081E00E94E9
:10141000F40380E090E0A0E8BFE389A39AA3ABA324
:10142000BCA32BEA3AEA4AE250E469A17AA18BA173
:101430009CA10E949512CA56DF4F688379838A83E4
:101440009B83C659D040CA56DF4F288139814A81D3
:101450005B81C659D0402DA33EA34FA358A789A1B5
:101460009AA1ABA1BCA1C656DF4F88839983AA83FA
:10147000BB83CA59D040C656DF4F288139814A8183
:101480005B81CA59D040C656DF4F688179818A8115
:101490009B81CA59D0400E94CC10C256DF4F68834E
:1014A00079838A839B83CE59D040C256DF4F2881EF
:1014B00039814A815B81CE59D04029A73AA74BA7F1
:1014C0005CA720E030E040E85FE36DA17EA18FA142
:1014D00098A50E94381188231CF481E08DA719C1BA
:1014E00020E03FEF4FE757E469A57AA58BA59CA5BF
:1014F0000E94901218160CF0CAC020E030E04AE7B3
:1015000054E469A17AA18BA19CA10E943D11CE5502
:10151000DF4F688379838A839B83C25AD040CE553C
:10152000DF4F88819981AA81BB81C25AD0408EA7A2
:101530009FA7A8ABB9AB20E030E04AEF54E46EA51A
:101540007FA588A999A90E949512CA55DF4F688383
:1015500079838A839B83C65AD040CA55DF4F8881DE
:101560009981AA81BB81C65AD0408AAB9BABACABF8
:10157000BDAB20E030E040E85FE36AA97BA98CA91D
:101580009DA90E94381188232CF481E090E09FAB44
:101590008EAB71C020E03FEF4FE757E46AA97BA90B
:1015A0008CA99DA90E94901218160CF04EC020E044
:1015B00030E040E251E46EA57FA588A999A90E9478
:1015C0009512C655DF4F688379838A839B83CA5AF5
:1015D000D040C655DF4F288139814A815B81CA5A84
:1015E000D040AA962CAF3DAF4EAF5FAFAA97AA9658
:1015F0006CAD7DAD8EAD9FADAA970E94AF11C25567
:10160000DF4F688379838A839B83CE5AD040C2554B
:10161000DF4F48815981CE5AD0405FAB4EAB10C0EE
:1016200088EC90E099AF88AF88AD99AD0197F1F75C
:1016300099AF88AF00008EA99FA901979FAB8EAB91
:101640008EA99FA9892B61F721C06AA97BA98CA9C2
:101650009DA90E94AF11CE54DF4F688379838A839E
:101660009B83C25BD040CE54DF4F88819981C25B9F
:10167000D0409FAB8EAB8EA99FA99BAF8AAF8AAD9E
:101680009BAD0197F1F79BAF8AAF000056C020E0F9
:1016900030E04FE753E46DA17EA18FA198A50E9491
:1016A0009012181614F569A57AA58BA59CA50E9421
:1016B000AF11CA54DF4F688379838A839B83C65BEB
:1016C000D040CA54DF4FA881B981C65BD040BDAFBE
:1016D000ACAF8CAD9DAD9FAF8EAF8EAD9FAD019782
:1016E000F1F79FAF8EAF000028C06DA17EA18FA142
:1016F00098A50E94AF11C654DF4F688379838A830F
:101700009B83CA5BD040C654DF4FB881CA5BD040D0
:10171000BDA72DA5CE01805C9F4FFC012083CE018B
:10172000805C9F4FDC018C91282F2A95F1F7CE0128
:10173000805C9F4FFC0120830000CE018F599F4F9A
:10174000DC016C9180E00E94AD0580E090E0A0E8B3
:10175000BFE389839A83AB83BC832BEA3AEA4AE2EC
:1017600050E469817A818B819C810E949512C254D8
:10177000DF4F688379838A839B83CE5BD040C254DA
:10178000DF4F288139814A815B81CE5BD0402D8338
:101790003E834F83588789819A81AB81BC81CE5328
:1017A000DF4F88839983AA83BB83C25CD040CE532A
:1017B000DF4F288139814A815B81C25CD040CE53A2
:1017C000DF4F688179818A819B81C25CD0400E9411
:1017D000CC10CA53DF4F688379838A839B83C65CAE
:1017E000D040CA53DF4F288139814A815B81C65C72
:1017F000D04029873A874B875C8720E030E040E87B
:101800005FE36D817E818F8198850E9438118823E6
:101810001CF481E08D8719C120E03FEF4FE757E4CA
:1018200069857A858B859C850E94901218160CF02C
:10183000CAC020E030E04AE754E469817A818B81B4
:101840009C810E943D11C653DF4F688379838A8350
:101850009B83CA5CD040C653DF4F88819981AA819F
:10186000BB81CA5CD0408E879F87A88BB98B20E054
:1018700030E04AEF54E46E857F85888999890E941B
:101880009512C253DF4F688379838A839B83CE5C32
:10189000D040C253DF4F88819981AA81BB81CE5C41
:1018A000D0408A8B9B8BAC8BBD8B20E030E040E836
:1018B0005FE36A897B898C899D890E94381188231E
:1018C0002CF481E090E09F8B8E8B71C020E03FEF85
:1018D0004FE757E46A897B898C899D890E94901221
:1018E00018160CF04EC020E030E040E251E46E8566
:1018F0007F85888999890E949512CE52DF4F68832F
:1019000079838A839B83C25DD040CE52DF4F28818A
:1019100039814A815B81C25DD040A6962CAF3DAF34
:101920004EAF5FAFA697A6966CAD7DAD8EAD9FAD69
:10193000A6970E94AF11CA52DF4F688379838A83CA
:101940009B83C65DD040CA52DF4F48815981C65D36
:10195000D0405F8B4E8B10C088EC90E0998F888FC1
:10196000888D998D0197F1F7998F888F00008E8966
:101970009F8901979F8B8E8B8E899F89892B61F719
:1019800021C06A897B898C899D890E94AF11C652CA
:10199000DF4F688379838A839B83CA5DD040C652B8
:1019A000DF4F88819981CA5DD0409F8B8E8B8E8955
:1019B0009F899B8F8A8F8A8D9B8D0197F1F79B8FD3
:1019C0008A8F000049C020E030E04FE753E46D818A
:1019D0007E818F8198850E949012181614F5698572
:1019E0007A858B859C850E94AF11C252DF4F688338
:1019F00079838A839B83CE5DD040C252DF4FA8811A
:101A0000B981CE5DD040BD8FAC8F8C8D9D8D9F8F69
:101A10008E8F8E8D9F8D0197F1F79F8F8E8F000097
:101A20001BC06D817E818F8198850E94AF11CE5140
:101A3000DF4F688379838A839B83C25ED040CE5117
:101A4000DF4FB881C25ED040BD878D8588A388A155
:101A50008A95F1F788A3000040E061E081E00E94F0
:101A6000F4030000CB51DF4F0FB6F894DEBF0FBE7A
:101A7000CDBFDF91CF911F910F910895CF93DF9349
:101A8000CDB7DEB7C159D1090FB6F894DEBF0FBE8E
:101A9000CDBF8DAF41E060E081E00E94F40380E0C3
:101AA00090E0A0E8BFE38FA798ABA9ABBAAB20E06A
:101AB00030E04AEF54E46FA578A989A99AA90E9459
:101AC00095122E966CAF7DAF8EAF9FAF2E972E9650
:101AD0008CAD9DADAEADBFAD2E978BAB9CABADAB22
:101AE000BEAB20E030E040E85FE36BA97CA98DA9A4
:101AF0009EA90E94381188232CF481E090E098AFD1
:101B00008FAB65C020E03FEF4FE757E46BA97CA99E
:101B10008DA99EA90E94901218160CF046C020E0D4
:101B200030E040E251E46FA578A989A99AA90E9402
:101B3000951262966CAF7DAF8EAF9FAF6297629643
:101B40008CAD9DADAEADBFAD62972A968CAF9DAF0B
:101B5000AEAFBFAF2A972A966CAD7DAD8EAD9FAD6F
:101B60002A970E94AF1166966CAF7DAF8EAF9FAF84
:101B700066976496AEADBFAD6497B8AFAFAB10C01B
:101B800088EC90E09AAF89AF89AD9AAD0197F1F7F3
:101B90009AAF89AF00008FA998AD019798AF8FAB2E
:101BA0008FA998AD892B61F71DC06BA97CA98DA960
:101BB0009EA90E94AF116A966CAF7DAF8EAF9FAFAA
:101BC0006A9768968EAD9FAD689798AF8FAB8FA9D7
:101BD00098AD9CAF8BAF8BAD9CAD0197F1F79CAFEF
:101BE0008BAF000041E061E081E00E94F40380E0FF
:101BF00090E0A0E8BFE389A39AA3ABA3BCA320E035
:101C000030E04AEF54E469A17AA18BA19CA10E9423
:101C100095126E966CAF7DAF8EAF9FAF6E976E963E
:101C20008CAD9DADAEADBFAD6E978DA39EA3AFA3A2
:101C3000B8A720E030E040E85FE36DA17EA18FA16E
:101C400098A50E94381188232CF481E090E09AA78F
:101C500089A765C020E03FEF4FE757E46DA17EA163
:101C60008FA198A50E94901218160CF046C020E093
:101C700030E040E251E469A17AA18BA19CA10E94CD
:101C80009512A2966CAF7DAF8EAF9FAFA297A29632
:101C90008CAD9DADAEADBFADA29726968CAF9DAF7E
:101CA000AEAFBFAF269726966CAD7DAD8EAD9FAD26
:101CB00026970E94AF11A6966CAF7DAF8EAF9FAFF7
:101CC000A697A496AEADBFADA497BAA7A9A710C01A
:101CD00088EC90E09CA78BA78BA59CA50197F1F7BA
:101CE0009CA78BA7000089A59AA501979AA789A709
:101CF00089A59AA5892B61F71DC06DA17EA18FA131
:101D000098A50E94AF11AA966CAF7DAF8EAF9FAF22
:101D1000AA97A8968EAD9FADA8979AA789A789A5DF
:101D20009AA59EA78DA78DA59EA50197F1F79EA7C1
:101D30008DA700006DAD80E00E94AD0580E090E0D1
:101D4000A0E8BFE389839A83AB83BC832BEA3AEA9A
:101D50004AE250E469817A818B819C810E949512CC
:101D6000AE966CAF7DAF8EAF9FAFAE97AE968CAD9B
:101D70009DADAEADBFADAE978D839E83AF83B8876B
:101D800089819A81AB81BC81E2968CAF9DAFAEAF69
:101D9000BFAFE297E2962CAD3DAD4EAD5FADE297A1
:101DA000E2966CAD7DAD8EAD9FADE2970E94CC10FA
:101DB000E6966CAF7DAF8EAF9FAFE697E6968CADA3
:101DC0009DADAEADBFADE69789879A87AB87BC87DF
:101DD00020E030E040E85FE36D817E818F8198856F
:101DE0000E94381188231CF481E08D8711C120E006
:101DF0003FEF4FE757E469857A858B859C850E9484
:101E0000901218160CF0C2C020E030E04AE754E40B
:101E100069817A818B819C810E943D11EA966CAF29
:101E20007DAF8EAF9FAFEA97EA968CAD9DADAEAD1C
:101E3000BFADEA978E879F87A88BB98B20E030E0F3
:101E40004AEF54E46E857F85888999890E949512AE
:101E5000EE966CAF7DAF8EAF9FAFEE97EE968CADEA
:101E60009DADAEADBFADEE978A8B9B8BAC8BBD8B22
:101E700020E030E040E85FE36A897B898C899D89B6
:101E80000E94381188232CF481E090E09F8B8E8B88
:101E900071C020E03FEF4FE757E46A897B898C8966
:101EA0009D890E94901218160CF04EC020E030E080
:101EB00040E251E46E857F85888999890E94951258
:101EC000C258DF4F688379838A839B83CE57D04083
:101ED000C258DF4F88819981AA81BB81CE57D040FB
:101EE00022968CAF9DAFAEAFBFAF229722966CAD5E
:101EF0007DAD8EAD9FAD22970E94AF11CE57DF4FC3
:101F0000688379838A839B83C258D040CE57DF4F42
:101F1000A881B981C258D040BF8BAE8B10C088EC6D
:101F200090E0998F888F888D998D0197F1F7998F1F
:101F3000888F00008E899F8901979F8B8E8B8E8959
:101F40009F89892B61F721C06A897B898C899D894A
:101F50000E94AF11CA57DF4F688379838A839B83BE
:101F6000C658D040CA57DF4F88819981C658D040A3
:101F70009F8B8E8B8E899F899B8F8A8F8A8D9B8D5D
:101F80000197F1F79B8F8A8F000049C020E030E075
:101F90004FE753E46D817E818F8198850E94901276
:101FA000181614F569857A858B859C850E94AF117A
:101FB000C657DF4F688379838A839B83CA58D04092
:101FC000C657DF4FA881B981CA58D040BD8FAC8FAA
:101FD0008C8D9D8D9F8F8E8F8E8D9F8D0197F1F7AC
:101FE0009F8F8E8F00001BC06D817E818F819885B1
:101FF0000E94AF11C257DF4F688379838A839B8326
:10200000CE58D040C257DF4FB881CE58D040BD87A0
:102010008D8588A388A18A95F1F788A3000040E008
:1020200061E081E00E94F4030000CF56DF4F0FB65D
:10203000F894DEBF0FBECDBFDF91CF910895CF934F
:10204000DF9300D000D0CDB7DEB79C838B831A829C
:1020500019820FC089819A812B813C81820F931F45
:10206000FC0180810E943E0D89819A8101969A83AC
:10207000898389819A812B813C81820F931FFC0186
:102080008081882339F7000000000F900F900F9097
:102090000F90DF91CF910895CF93DF9300D0CDB70C
:1020A000DEB789836A838981882F90E08430910527
:1020B000F1F08530910504F58330910599F0843075
:1020C0009105D4F48130910519F0029731F014C0D4
:1020D0008A8180580E94CB070FC08A8180540E9459
:1020E000CB070AC08A8180570E94CB0705C08A812E
:1020F00080530E94CB07000000000F900F90DF91EB
:10210000CF910895CF93DF9300D000D0CDB7DEB745
:1021100089836A835C834B836A8189810E944C1026
:102120008B819C810E941F1000000F900F900F90D8
:102130000F90DF91CF910895CF93DF93CDB7DEB7A6
:1021400066970FB6F894DEBF0FBECDBF9E8B8D8B0A
:102150008D899E894AE050E09E012F5F3F4FB90173
:102160000E940213CE0101960E941F100000669685
:102170000FB6F894DEBF0FBECDBFDF91CF910895AB
:10218000CF93DF93CDB7DEB781E00E94CB0700008D
:10219000DF91CF9108955058BB27AA270E94E310E2
:1021A0000C9456120E94481238F00E944F1220F0F0
:1021B00039F49F3F19F426F40C9445120EF4E0957F
:1021C000E7FB0C943F12E92F0E94671258F3BA17ED
:1021D000620773078407950720F079F4A6F50C943D
:1021E00089120EF4E0950B2EBA2FA02D0B01B90128
:1021F00090010C01CA01A0011124FF27591B99F07D
:10220000593F50F4503E68F11A16F040A22F232F88
:10221000342F4427585FF3CF469537952795A795D8
:10222000F0405395C9F77EF41F16BA0B620B730B7F
:10223000840BBAF09150A1F0FF0FBB1F661F771FF0
:10224000881FC2F70EC0BA0F621F731F841F48F4A5
:10225000879577956795B795F7959E3F08F0B0CF2E
:102260009395880F08F09927EE0F97958795089515
:102270000E941B1208F481E008950E9451110C94F1
:1022800056120E944F1258F00E94481240F029F452
:102290005F3F29F00C943F1251110C948A120C9458
:1022A00045120E94671268F39923B1F3552391F305
:1022B000951B550BBB27AA2762177307840738F0B5
:1022C0009F5F5F4F220F331F441FAA1FA9F335D012
:1022D0000E2E3AF0E0E832D091505040E695001CC6
:1022E000CAF72BD0FE2F29D0660F771F881FBB1F80
:1022F000261737074807AB07B0E809F0BB0B802D5E
:10230000BF01FF2793585F4F3AF09E3F510578F089
:102310000C943F120C948A125F3FE4F3983ED4F37E
:10232000869577956795B795F7959F5FC9F7880F5D
:10233000911D9695879597F90895E1E0660F771FAF
:10234000881FBB1F621773078407BA0720F0621B40
:10235000730B840BBA0BEE1F88F7E09508950E946B
:102360006F1288F09F5798F0B92F9927B751B0F0A6
:10237000E1F0660F771F881F991F1AF0BA95C9F709
:1023800014C0B13091F00E948912B1E008950C940C
:102390008912672F782F8827B85F39F0B93FCCF3BF
:1023A000869577956795B395D9F73EF49095809586
:1023B000709561957F4F8F4F9F4F0895E89409C0A6
:1023C00097FB3EF490958095709561957F4F8F4F68
:1023D0009F4F9923A9F0F92F96E9BB279395F6957E
:1023E000879577956795B795F111F8CFFAF4BB0FFC
:1023F00011F460FF1BC06F5F7F4F8F4F9F4F16C060
:10240000882311F096E911C0772321F09EE8872FE9
:10241000762F05C0662371F096E8862F70E060E0A5
:102420002AF09A95660F771F881FDAF7880F96951E
:10243000879597F90895990F0008550FAA0BE0E8C2
:10244000FEEF16161706E807F907C0F01216130676
:10245000E407F50798F0621B730B840B950B39F4B6
:102460000A2661F0232B242B252B21F408950A261C
:1024700009F4A140A6958FEF811D811D089597F95C
:102480009F6780E870E060E008959FEF80EC08951A
:1024900000240A9416161706180609060895002443
:1024A0000A9412161306140605060895092E0394BD
:1024B000000C11F4882352F0BB0F40F4BF2B11F431
:1024C00060FF04C06F5F7F4F8F4F9F4F089557FD90
:1024D0009058440F551F59F05F3F71F04795880F92
:1024E00097FB991F61F09F3F79F087950895121629
:1024F00013061406551FF2CF4695F1DF08C01616D5
:1025000017061806991FF1CF869571056105089485
:102510000895E894BB2766277727CB0197F908959C
:102520000E941B1208F48FEF08950E94A8120C94C9
:1025300056120E94481238F00E944F1220F0952344
:1025400011F00C943F120C94451211240C948A1231
:102550000E94671270F3959FC1F3950F50E0551FCD
:10256000629FF001729FBB27F00DB11D639FAA27E8
:10257000F00DB11DAA1F649F6627B00DA11D661F37
:10258000829F2227B00DA11D621F739FB00DA11D58
:10259000621F839FA00D611D221F749F3327A00D12
:1025A000611D231F849F600D211D822F762F6A2FAE
:1025B00011249F5750409AF0F1F088234AF0EE0F13
:1025C000FF1FBB1F661F771F881F91505040A9F740
:1025D0009E3F510580F00C943F120C948A125F3F8D
:1025E000E4F3983ED4F3869577956795B795F7957C
:1025F000E7959F5FC1F7FE2B880F911D96958795F4
:1026000097F908954532510520F4423010F00C94AA
:102610000D13FB011082CB010895BB274A3031F422
:10262000992322F4BDE2909581959F4F0C94191344
:10263000BB27FB015527AA27880F991FAA1FA4179C
:1026400010F0A41B83955051B9F7A05DAA3308F090
:10265000A95DA193009779F7B111B1931192CB01C4
:102660000C943213DC01FC01672F71917723E1F7A1
:10267000329704C07C916D9370836291AE17BF074F
:08268000C8F30895F894FFCFA0
:0C26880064697374616E63653A200000A1
:00000001FF
